:020000040800F2
:10000000B0060020890100086F0300086B03000898
:100010006D03000843020008490B000800000000BF
:100020000000000000000000000000007105000852
:1000300045020008000000003505000829060008F8
:10004000A3010008A3010008A3010008A301000800
:10005000A3010008A3010008A3010008A3010008F0
:10006000A3010008A3010008A3010008A3010008E0
:10007000A3010008A3010008A3010008A3010008D0
:10008000A3010008A3010008A3010008A3010008C0
:10009000A3010008A3010008A3010008A3010008B0
:1000A000A3010008A3010008A3010008A3010008A0
:1000B000A3010008A3010008A3010008A301000890
:1000C000A3010008A3010008A3010008A301000880
:1000D000A3010008A3010008A3010008A301000870
:1000E000A3010008A3010008A301000800F002F822
:1000F00000F03AF80AA090E8000C82448344AAF188
:100100000107DA4501D100F02FF8AFF2090EBAE885
:100110000F0013F0010F18BFFB1A43F0010318473B
:100120008C150000AC150000103A24BF78C878C1C7
:10013000FAD8520724BF30C830C144BF04680C60ED
:10014000704700000023002400250026103A28BF35
:1001500078C1FBD8520728BF30C148BF0B60704739
:100160001FB51FBD10B510BD00F031F81146FFF7E7
:10017000F7FF00F0EBFC00F04FF803B4FFF7F2FFDD
:1001800003BC00F057F800000948804709480047C1
:10019000FEE7FEE7FEE7FEE7FEE7FEE7FEE7FEE737
:1001A000FEE7FEE704480549054A064B7047000094
:1001B0002D060008ED000008B0000020B006002069
:1001C000B0020020B00200207047704770477546AB
:1001D00000F02CF8AE4605006946534620F00700B3
:1001E000854618B020B5FFF7DDFFBDE820404FF091
:1001F00000064FF000074FF000084FF0000B21F011
:100200000701AC46ACE8C009ACE8C009ACE8C009DD
:10021000ACE8C0098D46704710B50446AFF30080C6
:100220002046BDE81040FFF7A8BF00000048704717
:100230004C00002001491820ABBEFEE7260002005A
:100240007047FEE7704700EBC000C1004FF0E020B0
:10025000416100218161052101610169C903FCD56A
:100260000421016170470000F8B504460D461646AA
:100270001F461148844204D10121042000F06AF98C
:100280000EE00E48844204D10121082000F062F9FA
:1002900006E00B48844203D10121102000F05AF9F6
:1002A000ADF800508DF803608DF802706946204665
:1002B00000F008F8F8BD000000080140000C014003
:1002C000001001402DE9F0410022CC7804F00F032A
:1002D000E40601D58C7823430C784FF00F0714F017
:1002E000FF0F4FF0010C1CD005680CFA02F40E88C9
:1002F0002640A64211D1960007FA06F825EA08051D
:1003000003FA06F848EA0505CE78282E02D0482ED2
:1003100002D002E0446100E00461521C082AE4D3E8
:1003200005600A88FF2A1ED94568002202F10806E6
:100330000CFA06F40E882640A64210D1960007FA61
:1003400006F825EA080503FA06F848EA0505CE7816
:10035000282E00D14461CE78482E00D10461521C71
:10036000082AE3D34560BDE8F081FEE7FEE7704769
:1003700070B50F23C27801260178002A1ED0144AD6
:10038000126802F4E062C2F5E062120AC2F10404EB
:10039000D3404578A54082781A402A43120101F1E2
:1003A000E02181F80024007800F01F018E40400910
:1003B000800000F1E020C0F8006170BD01F01F0076
:1003C00086404809800000F1E020C0F8806170BDDF
:1003D0000CED00E02DE9F04FA3B00109229100F0EF
:1003E0000F0021900024DFF884B0DFF88490A2464B
:1003F00001AE60274FF0010806EB04152F80A5F829
:100400000280BBF8000000F08BFF59F8241000F0C8
:100410009BFF00F065FFE880A5F808A0641CE4B22B
:10042000042CE9D30424DFF84CB006EB04152F802C
:10043000A5F80280BBF8000000F072FF59F8241004
:1004400000F082FF00F04CFFE880A5F808A0641CD3
:10045000E4B2082CE9D301A8229900F057F901A8C9
:10046000219900F00BF923B0BDE8F08F2C04004077
:100470002C0000202C0800402DE9F04106AD95E845
:10048000E010DFF83C800F4C404500D22060414531
:1004900000D26160424500D2A260434500D2E360D1
:1004A000454500D22561464500D26661474500D2E8
:1004B000A761C44501D2C4F81CC0BDE8F0810000AA
:1004C000000080802C0000202DE9F04106460F46F8
:1004D00031091648002902D04FF0040401E04FF022
:1004E0000004047002D04FF4006201E04FF4806217
:1004F00002F1804242600E4D02F13400686002F168
:100500003800A86002F13C00286102F14000286236
:10051000908D00F005FF394600F016FF00F0E0FE78
:10052000E64055F826100880BDE8F0810000002064
:100530000800002070470000054A002903D0D16957
:100540000143D1617047D1698143D1617047000097
:1005500000100240054A002903D0916901439161CE
:10056000704791698143916170470000001002401B
:10057000704700F001B800000CB500220192009213
:100580002748016841F4803101604FF4A06301689D
:1005900001F4003100910199491C0191009911B9B0
:1005A00001999942F3D10168890302D50121009193
:1005B00000E000920099012930D11A490A6842F0FE
:1005C00010020A600A6822F007020A600A6842F014
:1005D00002020A604168416041684160416841F43B
:1005E00080614160416821F47C114160416841F4BF
:1005F000E8114160016841F0807101600168890182
:10060000FCD5416821F003014160416841F00201DD
:1006100041604168C1F381010229FAD10CBD00009B
:1006200000100240002002407047000010B50F4843
:10063000016841F00101016041680D4A11404160CB
:1006400001680C4A11400160016821F480210160B9
:10065000416821F4FE0141604FF41F018160FFF702
:1006600088FF05494FF00060086010BD001002408F
:100670000000FFF8FFFFF6FE08ED00E02DE9F04175
:1006800004460D461E4F1F4EE80709D0214630464E
:1006900000F00EF90323182240213846FFF7E4FD4D
:1006A0006D08E8070AD004F11001304600F044F963
:1006B0000323182280213846FFF7D6FD6D08124F1C
:1006C000E8070AD004F12001304600F079F903234D
:1006D000182201213846FFF7C7FD6808C0070CD073
:1006E00004F13001304600F0ADF93846BDE8F04184
:1006F000032318220221FFF7B7BDBDE8F0810000F7
:100700000008014000040040000C01402DE9F041C8
:1007100004460D461F4E204FE8070AD004F1400161
:10072000304600F0C5F80323182240213846FFF771
:100730009BFD6D08E8070AD004F15001304600F037
:10074000FBF80323182280213846FFF78DFD6D0842
:10075000E8070BD004F16001304600F031F90323C3
:1007600018224FF480713846FFF77EFD6808C007F5
:100770000DD004F17001304600F064F93846BDE850
:10078000F041032318224FF40071FFF76DBDBDE85F
:10079000F081000000080040000C01402DE9FF5FDF
:1007A0000446DDE91156DDF838B0884691469A4690
:1007B0003148012784420FD10121C014FFF7CAFE3E
:1007C0008DF808A019208DF80C008DF80D508DF8CB
:1007D0000E608DF80F7031E0B4F1804F10D02748D3
:1007E00084421BD101210220FFF7A6FE1D208DF8B7
:1007F0000C008DF80D508DF80E608DF80F701DE017
:1008000001210846FFF798FE1C208DF80C008DF89A
:100810000D508DF80E608DF80F700FE0184884426F
:100820000CD101210420FFF787FE1E208DF80C005B
:100830008DF80D508DF80E608DF80F7003A8FFF73E
:1008400097FDADF80080ADF80490ADF802B00F98B8
:10085000ADF806006946204600F028F9109820B14E
:1008600001221146204600F019F80121204600F02F
:1008700009F8BDE8FF9F0000002C01400004004083
:1008800000080040002904D0018841F001010180E6
:100890007047018821F0010101807047002A03D0D0
:1008A00082890A438281704782898A4382817047A4
:1008B00030B5028C22F001020284028C8388048B02
:1008C00024F0700424F003050C882C4322F002026B
:1008D0000D8915434A882A43124DA8420BD0124D68
:1008E000A84208D0114DA84205D0114DA84202D00F
:1008F000104DA8420FD122F008054A892A4322F060
:1009000004058A882A4323F4807323F400738D89B5
:100910001D43CB892B4383800483C988818602844D
:1009200030BD0000002C0140003401400040014077
:10093000004401400048014070B5028C22F01002D2
:100940000284028C8388048B24F4E04424F44076EF
:100950000D884FF6FF7404EA0525354322F0200286
:100960000E8904EA061616434A8804EA0212324344
:10097000114EB04202D0114EB04217D122F0800287
:100980004E8904EA0616164326F040068A8804EAD1
:100990000212324323F4806323F400638E8904EA55
:1009A00086061E43CB8904EA830333438380058391
:1009B000C9880187028470BD002C014000340140C9
:1009C00070B5028C22F480720284028C8388848B3E
:1009D00024F0700424F003040D88254322F40072EF
:1009E0000E894FF6FF7404EA062616434A8804EA85
:1009F00002223243114EB04202D0114EB04217D102
:100A000022F400664A8904EA0222324322F4806614
:100A10008A8804EA0222324323F4805323F40053E9
:100A20008E8904EA06161E43CB8904EA0313334376
:100A300083808583C9888187028470BD002C014032
:100A40000034014070B5028C22F480520284058C7F
:100A50008288838B23F4E04323F440760C884FF69E
:100A6000FF7303EA0424344325F400550E8903EA96
:100A700006362E434D8803EA05353543094EB0420C
:100A800002D0094EB04205D122F480468A8903EA99
:100A90008212324382808483C988A0F84010058482
:100AA00070BD0000002C01400034014030B50288C8
:100AB0001B4C1C4DA0420DD0A8420BD0B0F1804F72
:100AC00008D0194B984205D0184B984202D0184BC9
:100AD000984203D122F070034A881A43154B98427A
:100AE00006D0154B984203D022F44073CA881A43AB
:100AF00002808A8882850A880285A0420AD0A8429C
:100B000008D00E4A904205D00D4A904202D00D4ABC
:100B1000904201D1097A01860121818230BD000015
:100B2000002C014000340140000400400008004057
:100B3000000C004000100040001400400040014044
:100B40000044014000480140FEE700008EB07B48B1
:100B50000D90204600F030FBDFF8E4B1794B5A46A7
:100B600000F044F900F010F905900121204600F052
:100B70005EFD00F021FB5A46724B00F037F900F0A1
:100B800003F906907049204600F0DEFB00F014FBEC
:100B90005A466C4B00F02AF900F0F6F80790022153
:100BA000204600F044FD00F007FB5A46654B00F07C
:100BB0001DF900F0E9F808906449204600F0C4FBF4
:100BC00000F0FAFA5A465F4B00F010F900F0DCF83A
:100BD00009905F49204600F0B7FB00F0EDFA5A4655
:100BE000584B00F003F900F0CFF80A90594920461D
:100BF00000F0AAFB00F0E0FA5A46524B00F0F6F87B
:100C000000F0C2F80B900321204600F010FD00F028
:100C1000D3FA5A464B4B00F0E9F800F0B5F80C90C7
:100C200000200124CDE9020401900490034644F61B
:100C30001F6500902A4647214748FFF7AFFD002077
:100C4000CDE9020401900490034600902A46472112
:100C50004248FFF7A3FD0321414800F0E8FC00F003
:100C6000ABFA5A46374B00F0C1F800F08DF8044655
:100C70003C4F3D483D4900F087F805464FEABB0030
:100C80003B4900F081F80646DFF8E8804FF0663017
:100C9000394600F079F881460221314800F0C7FC5E
:100CA00000F08AFA5A46274B00F0A0F800F06CF8E2
:100CB0000746DFF8C4A03148414600F065F8804699
:100CC0000121274800F0B3FC00F076FA5A461D4B8C
:100CD00000F08CF800F058F883462948514600F09F
:100CE00053F8CDE90096CDE902543B4642465946B9
:100CF000FFF7C2FBFF20FFF76DFB4FF0785805AD03
:100D0000012600241F4F55F82400404502DB45F81A
:100D1000247004E00D9900F07BFA45F8240006FAEF
:100D200004F055F82410C0B2FFF7CEFB641CE4B207
:100D3000082CE8D3C820FFF786FAE2E7ACC52737CE
:100D40009A9999999999993F000040400000A040D4
:100D50000000C0400000E0400004004000080040E7
:100D6000CDCC4C3C6666B63F666666C6CCCCBC3F16
:100D70009999B93F0000B03F3333A33F66666606DA
:100D8000CDCCCC34CDCCCC3C21F00042A2F1605291
:100D9000B2F5801F01F0004328BFD2F17F6C0BD960
:100DA0005FEA001C43EAC20242EB507018BF704772
:100DB00028BF20F001007047B2F5801FBCBF184665
:100DC00070474FEA410C1CF5001F02D2084600F0A4
:100DD00082BB70B500F0B2F800000089FFF7F6BFE3
:100DE0004FF00040A0F580007047000010B591EA78
:100DF000030F48BF83F0004300F1FC80841A71EBBD
:100E0000030C05D2121943EB0C03001B61EB0C0120
:100E1000DFF824E14FEA1154A4EB135C1EEA430F00
:100E200018BF9EEA445F73D023EA0E03DCF1200E64
:100E300021EA045143F4801332D322FA0CFE10EB62
:100E40000E0023FA0CFE41EB0E01CCF1200E03FA4A
:100E50000EFE10EB0E0051F10001B1F5801FCCF138
:100E6000200E32D201EB045112FA0EF2BDE810400E
:100E700058BF7047401C38BF5FEA420218BF704736
:100E8000002814BF20F0010041F100014FEA4103A6
:100E900013F5001F38BF7047A1F1C04100F09CB8A6
:100EA000012A43EB0302ACF1200CDCF11F0E32BF30
:100EB0004FF0000E23FA0CF310EB030041EB04514A
:100EC000B4EB115FD0D0A1EB045101F580114908BA
:100ED0005FEA300001EB04510ED350F1000038BF3F
:100EE00012FA0EFE08D1BDE81040C9E7401C38BF19
:100EF0005FEA4202CAD1C3E7BDE810404FEA4103AE
:100F000013F5001F38BF7047A1F1C04100F064B86D
:100F10009EEA445F08D011EA5E0FBDE8104004BFAE
:100F200001F0004100207047BDE8104070B500F0AE
:100F300005F800BF64FBBE3E0000E0FF0EF1020EAC
:100F40002EF0030E5EF8046B364205D4012A43EB03
:100F5000030515F5001F12D8012841EB010C1CF503
:100F6000001F0CD80ED14FEAD17C15F5001F0CEBF9
:100F70004C0C0CF1020C08BF4CEBD37C04E04FF09E
:100F8000080C01E04FEAD37C0CEB4C0526FA05F681
:100F900006F00706B6F1040C06D20EEB860CBDE88F
:100FA00070404CF0010C6047DFE80CF0090B0202C6
:100FB0004FF000414FF00000A1F5002170BD19462F
:100FC0001046012851EB010418BFD4F5001484BF6A
:100FD000002001F0004170BD0808A0F500114FEAA3
:100FE0003101704710B591EA030F48BF83F0004309
:100FF0003FF504AF841A71EB030C07D212198CF081
:10100000004C43EB0C03001B61EB0C01DFF8A4E187
:101010004FEA1154A4EB135C1EEA430F18BF9EEA7B
:10102000445F00F0B08023EA6E03524221EA04518B
:10103000C3EB6E0338BF5B1EDCF1200E25D322FA12
:101040000CFE10EB0E0043FA0CFE41EB0E01CCF14E
:10105000200E03FA0EFE10EB0E0051F10001CCF150
:10106000200E29D412FA0EF201EB0451BDE8104013
:1010700058BF7047401C1CBFB2F1004F704700289A
:101080000CBF491C20F00100704712EB020E43EB2D
:10109000030218BF4FF0010E4EEA4202ACF1200CE1
:1010A000DCF11E0E54D943FA0CFE10EB0E0051F188
:1010B000FF31CCF11E0ED5D50EF1010E12FA0EFE47
:1010C000404141EB010101EB445C5FEA5C5C10D9FB
:1010D00010EBDE7001EB045138BFBEF1004FBDE8EC
:1010E000104018BF704700280CBF491C20F00100B9
:1010F000704730D24FEAD42C11F5001124F400646B
:101100001BD0B1FA81F20B3AA41AA41ED2F120032B
:10111000914030FA03F31943904001EBCC71002C5D
:1011200001EB0451BDE81040A8BF704701F1C04178
:101130004FF0000001F000417047B0FA80F310FA60
:1011400003F100D110BDE41A173C4805C90AE4E7D1
:1011500001EB045110BD491001EB0451BDE81040F2
:101160004FEA300002E04FF0000170474A0008BF2C
:101170000042F8D0B2F5001F28BF704701F00041CF
:101180004FF0000070479EEA445F07D011EA5E0FFF
:10119000BDE8104004BF002100207047BDE81040AA
:1011A00070B5FFF7CBFE00BF40DFF63E83F0004195
:1011B000104670470000E0FF43004FEAD30C4FEAAF
:1011C0003C0C43401FBF40070CF1605113F0FE4F31
:1011D00070471CF0006F03D100200CF000417047F5
:1011E0000CF0004343EA507010B540EACC0000F028
:1011F0002CF900BF000000924FEA0001FFF7ECBE9F
:101200004FF000414FF00000A1F5002170470000B1
:1012100090EA010F48BF81F0004100F16881421A55
:101220003CBF801A89184FEAD0524FF07F4C1CEA1D
:10123000410FA2EBD15318BF9CEA026F00F03B8034
:101240004FF0004C4CEA00204CEA012121FA03FC4B
:1012500010EB0C0C1ED202F1FF325FEA1C2040EBB7
:10126000C25038BF70471CF07F0F4FEA400C18BFC8
:10127000BCF17F4F38BF7047C3F12003994008BFCE
:1012800020F00100BCF17F4F38BF7047A0F1C04093
:1012900000F021B94FEA3C00000A40EBC25028BFE1
:1012A0001CF0FF0F4FEA400CE6D018BFBCF17F4F97
:1012B00038BF7047EAE79CEA026F05D010EA5C0F7E
:1012C00008BF00F00040704710B500F0BEF800BF46
:1012D00064FBBE3E014800F078B900BF0000C07F4B
:1012E000C10DD1F19E0206DB4FEA002343F000431B
:1012F00023FA02F07047004207D54FEA4001B1F1EE
:10130000FE4F02D24FF00000704710B500F09DF87C
:1013100049922480002070476FEA20007047000047
:10132000B0FA80F310FA03F2C3F19D030AD0D90595
:1013300001EB1220530638BF704700F1010008BFCF
:1013400020F00100704700004FF47F0C1CEAD0121F
:101350001EBF1CEAD11392EA0C0F93EA0C0F00F0A7
:10136000478090EA010F48BF42F480724FF0004C72
:101370004CEA00204CEA012102EB0302A0FB01131E
:10138000A2F50002002918BF43F001035B0028BF4B
:101390004FEA330342EB22425FEA132C4CEBC2507C
:1013A0002EBFBCEB436FB2F57C0F70474FEA036C66
:1013B000BCF1004F08BF20F00100B2F57C0F38BF30
:1013C00070470BD582F0FF0212F5803FC8BF70470F
:1013D00000F1C040D8BF00F00040704700F5000C9D
:1013E0005FEA4C0C48BF7047B0F1C04000F073B8E2
:1013F00090EA010F0CEAD11348BF42F480726245B3
:1014000038BF634504D280EA010000F00040704715
:1014100010B500F01AF800BF8900013E00F007B8CF
:1014200000F009B85FEA410C5FEA1C6C08D080EA62
:10143000010000F050B85FEA400C5FEA1C6CF6D186
:101440004FF00040A0F5800070470EF1020E2EF024
:10145000030E5EF8044B244204D44FEA4102B2F179
:101460007F4F11D84FEA4003B3F17F4F0CD80ED114
:101470004FEAD07CB2F17F4F0CEB4C0C0CF1020C1C
:1014800008BF4CEBD17C04E04FF0080C01E04FEAC0
:10149000D17C0CEB4C0324FA03F404F00704B4F100
:1014A000040C06D20EEB840CBDE810404CF0010C8D
:1014B0006047DFE80CF0070802024FF00040A0F59B
:1014C000800010BD0846420018BFD2F1807288BF6C
:1014D00000F0004010BDFF2141EAD050C005704728
:1014E00090EA010F48BF81F000413FF598AE421AE3
:1014F00004D882F00042A0EB020011444FEAD0521F
:101500004FF07F4C1CEA410FA2EBD15318BF9CEA6D
:10151000026F4AD04FF0004C4CEA00204CEA012107
:1015200021FA03FCB0EB0C0C0FD412F0FE0F36D0F6
:101530005FEA4C001DD5001240EBC25038BF704727
:101540001CF03F0F18BF70470BE0A2F101025FEAE9
:101550001C2040EBC25038BF70471CF07F0F18BFF3
:101560007047C3F12003994014BF401E20F00100D2
:10157000704780084FEA122308BF7047B0FA80FC1A
:10158000A2EB0C02CCF1280C60FA0CF093EA122FBB
:1015900004BF00EBC25070474FEAC3707047130A94
:1015A0005FEADC1008BF7047F6E79CEA026F04D0E0
:1015B00010EA5C0F08BF0020704710B5FFF745FF29
:1015C00040DFF63E81F0004070470CF00F03092B1E
:1015D00008BF082000F051800A2B0BD0082B18BF41
:1015E000704708BF1CF0400F0AD04FF000004FF0CA
:1015F000000170471CF0400F18BF4FF000407047CB
:101600001CF0100F08D020F0704300F07F4242EA37
:10161000D3014FEA4370704700F0604021F07F42F1
:1016200042EA000201F07F4040EA727070474FF0DA
:10163000FF0212EAD0521CBF92F0FF038B42C2BFDE
:10164000D14200EBC1507047002A0AD0002B0BD0CA
:10165000002900F00040A4BF40F0FE4040F400002C
:10166000704700F00040704743024FF00B0C18BF6A
:101670004CF0806C7FF42EAE70471CF4801F11D0AC
:101680001CF4E02F03D06FEACC31490070474FF0D3
:101690004050EFF3008222F0704242EA000282F3EF
:1016A000008870474FF0000070470000CC1600081B
:1016B000000000200800000028010008D4160008DF
:1016C00008000020A80600004401000800000000F7
:0416D0000000000016
:04000005080000ED02
:00000001FF
